:100000000C9481000C94B2000C94B2000C94B200D9
:100010000C94B2000C94B2000C94B2000C94B20098
:100020000C94B2000C94B2000C94B2000C94B20088
:100030000C94B2000C94B2000C94B2000C94B20078
:100040000C94B2000C94B2000C94B2000C94B20068
:100050000C94B2000C94B2000C94B2000C94AB015E
:100060000C94B2000C948A030C94B2020C94B2006B
:100070000C94B2000C94B2000C94B2000C94B20038
:100080000C94B2000C94B2000C94B2000C94B20028
:100090000C9457030C9473020C94B2000C94B200AD
:1000A0000C94B2000C94B2000C94B2000C94B20008
:1000B0000C94B2000C94B2000C94B2000C94B200F8
:1000C0000C94B2000C94B2000C94B2000C94240373
:1000D0000C9434020C94B2000C94F1020C94F501CF
:1000E0000C94B2000C942C010C9483010C9401012B
:1000F0000C9448010C940C010C94BF000C94BD03AB
:10010000BD0311241FBECFEFD1E2DEBFCDBF00E0A3
:100110000CBF12E0A0E0B2E0EEEEFAE000E00BBFB0
:1001200002C007900D92A031B107D9F724E0A0E1F9
:10013000B2E001C01D92A23CB207E1F710E0C1E8B5
:10014000D0E000E006C021970109802FFE010E9447
:100150006D05C038D10780E00807A9F70E948F0419
:100160000C946A050C940000E091A004F091A104A5
:100170000190F081E02D682F80EA94E019940F93AC
:100180001F93CF93DF93FC01A685B7858D01005C9B
:100190001F4FE8018881998101968F739927AD01DE
:1001A0004E5B5F4FEA012881398182179307D1F3B3
:1001B000E80128813981A20FB31F6C93A685B7850A
:1001C000A05CBF4F11969C938E93A689B7892C9102
:1001D00081E090E0078C02C0880F991F0A94E2F733
:1001E000822B8C9381E081A30488F589E02D8081A6
:1001F0008064808381E090E0DF91CF911F910F9127
:100200000895FC0181A1882329F0A489B5898C91E6
:1002100086FFFBCF11A20895FC01A485B585FD01E1
:10022000E05CFF4F208131813296808191812817D7
:10023000390779F080819181A80FB91F8C912081B5
:1002400031812F5F3F4F2F7333273183208390E01D
:1002500008958FEF9FEF0895DC011C96ED91FC91BE
:100260001D97DF01A05CBF4F2D913C911197129615
:100270008D919C9111972817390739F08D919C9198
:10028000E80FF91F808190E008958FEF9FEF0895A8
:10029000FC0124853585F901E05CFF4F8081918167
:1002A000329620813181821B930B8F739927089599
:1002B00080EA94E00E9448018DEE93E00E9448019C
:1002C00083E493E00E94480189E992E00C9448019C
:1002D000FB01E05CFF4F208131812F5F3F4F2F7387
:1002E0003327DB01AE5BBF4F4D915C91241735077F
:1002F00041F040815181DB01A40FB51F8C93318304
:10030000208308950895CF92DF92EF92FF920F938A
:100310001F93CF93DF936C01EB017B01E40EF51E7D
:1003200000E010E0CE15DF0561F06991D601ED9196
:10033000FC910190F081E02DC6011995080F191F5D
:10034000F1CFC801DF91CF911F910F91FF90EF90F6
:10035000DF90CF9008951F920F920FB60F92112445
:100360002F933F938F939F93AF93BF9380919C0460
:1003700090919D04A0919E04B0919F0430919B04A4
:1003800023E0230F2D3720F40196A11DB11D05C0D8
:1003900026E8230F0296A11DB11D20939B04809394
:1003A0009C0490939D04A0939E04B0939F0480911D
:1003B000970490919804A0919904B0919A040196A1
:1003C000A11DB11D8093970490939804A093990464
:1003D000B0939A04BF91AF919F918F913F912F91CC
:1003E0000F900FBE0F901F9018951F920F920FB68F
:1003F0000F9211240BB60F922F933F938F939F93DD
:10040000EF93FF9320915102309152028091530259
:10041000909154022817390731F4809131018F7D72
:100420008093310114C0E0915302F0915402EF5EC9
:10043000FD4F2081809153029091540201968F7359
:100440009927909354028093530220933601FF9191
:10045000EF919F918F913F912F910F900BBE0F9035
:100460000FBE0F901F9018951F920F920FB60F920C
:1004700011240BB60F922F933F938F939F93EF937B
:10048000FF932091FB023091FC028091FD0290913C
:10049000FE022817390731F48091D1008F7D8093B7
:1004A000D10014C0E091FD02F091FE02E554FD4F31
:1004B00020818091FD029091FE0201968F73992711
:1004C0009093FE028093FD022093D600FF91EF915E
:1004D0009F918F913F912F910F900BBE0F900FBE68
:1004E0000F901F9018951F920F920FB60F92112424
:1004F0000BB60F922F933F938F939F93EF93FF939E
:100500002091A5033091A6038091A7039091A803A1
:100510002817390731F48091C9008F7D8093C90075
:1005200014C0E091A703F091A803EB59FC4F208180
:100530008091A7039091A80301968F7399279093B8
:10054000A8038093A7032093CE00FF91EF919F9182
:100550008F913F912F910F900BBE0F900FBE0F9078
:100560001F9018951F920F920FB60F9211240BB681
:100570000F922F933F938F939F93EF93FF9320912D
:100580004F043091500480915104909152042817E7
:10059000390731F48091C1008F7D8093C10014C070
:1005A000E0915104F0915204E15FFB4F2081809172
:1005B00051049091520401968F739927909352049D
:1005C000809351042093C600FF91EF919F918F91EA
:1005D0003F912F910F900BBE0F900FBE0F901F9069
:1005E00018951F920F920FB60F9211240BB60F920F
:1005F0002F933F934F935F936F937F938F939F932B
:10060000AF93BF93EF93FF938091300182FD07C0BA
:100610008091360165E572E00E94680102C0809118
:100620003601FF91EF91BF91AF919F918F917F9193
:100630006F915F914F913F912F910F900BBE0F9053
:100640000FBE0F901F9018951F920F920FB60F922A
:1006500011240BB60F922F933F934F935F936F9399
:100660007F938F939F93AF93BF93EF93FF9380916B
:10067000D00082FD07C08091D6006FEF72E00E942B
:10068000680102C08091D600FF91EF91BF91AF91B8
:100690009F918F917F916F915F914F913F912F919A
:1006A0000F900BBE0F900FBE0F901F9018951F92CA
:1006B0000F920FB60F9211240BB60F922F933F9308
:1006C0004F935F936F937F938F939F93AF93BF935A
:1006D000EF93FF938091C80082FD07C08091CE0008
:1006E00069EA73E00E94680102C08091CE00FF9128
:1006F000EF91BF91AF919F918F917F916F915F919A
:100700004F913F912F910F900BBE0F900FBE0F9006
:100710001F9018951F920F920FB60F9211240BB6CF
:100720000F922F933F934F935F936F937F938F938A
:100730009F93AF93BF93EF93FF938091C00082FD8F
:1007400007C08091C60063E574E00E94680102C0A2
:100750008091C600FF91EF91BF91AF919F918F91D2
:100760007F916F915F914F913F912F910F900BBEB1
:100770000F900FBE0F901F901895CF92DF92EF92BF
:10078000FF92E0EAF4E01382128288EEC82E83E042
:10079000D82EE12CF12CC482D582E682F78264E067
:1007A00072E07183608383E594E0958784878FE0AE
:1007B00094E09787868785EC90E0918B808B84EC22
:1007C00090E0938B828B80EC90E0958B848B81EC16
:1007D00090E0978B868B82EC90E0918F808F86ECF7
:1007E00090E0938F828F44E0448F33E0358F27E091
:1007F000268F95E0978F81E080A3EDEEF3E01382E2
:100800001282C482D582E682F78271836083A9EA6C
:10081000B3E0B587A487A5E6B3E0B787A687ADECBC
:10082000B0E0B18BA08BACECB0E0B38BA28BA8ECAA
:10083000B0E0B58BA48BA9ECB0E0B78BA68BAAEC8B
:10084000B0E0B18FA08FAEECB0E0B38FA28F448F39
:10085000358F268F978F80A3E3E4F3E01382128213
:10086000C482D582E682F78271836083AFEFB2E003
:10087000B587A487ABEBB2E0B787A687A5EDB0E05C
:10088000B18BA08BA4EDB0E0B38BA28BA0EDB0E058
:10089000B58BA48BA1EDB0E0B78BA68BA2EDB0E039
:1008A000B18FA08FA6EDB0E0B38FA28F448F358FAC
:1008B000268F978F80A3E9E9F2E013821282C48227
:1008C000D582E682F7827183608365E572E0758781
:1008D000648761E172E07787668765E371E0718B19
:1008E000608B64E371E0738B628B60E371E0758B06
:1008F000648B61E371E0778B668B62E371E0718FEB
:10090000608F66E371E0738F628F448F358F268F1F
:10091000978F80A3FF90EF90DF90CF900895789409
:1009200084B5826084BD84B5816084BD85B58260F4
:1009300085BD85B5816085BD80916E0081608093A5
:100940006E0010928100809181008260809381000E
:10095000809181008160809381008091800081601E
:10096000809380008091B10084608093B100809179
:10097000B00081608093B00080919100826080938C
:10098000910080919100816080939100809190000E
:100990008160809390008091A10082608093A1008B
:1009A0008091A10081608093A1008091A00081606E
:1009B0008093A00080912101826080932101809129
:1009C00021018160809321018091200181608093C9
:1009D000200180917A00846080937A0080917A006F
:1009E000826080937A0080917A00816080937A009F
:1009F00080917A00806880937A001092C100E09123
:100A0000B404F091B50481E090E09C010090C00432
:100A100002C0220F331F0A94E2F72083E091B00452
:100A2000F091B1041082E091B204F091B3042FEC84
:100A300020831092C104E091B604F091B704408184
:100A40009C010090BC0402C0220F331F0A94E2F7FD
:100A5000242B2083E091B604F091B70440819C01DF
:100A60000090BD0402C0220F331F0A94E2F7242B2A
:100A70002083E091B604F091B70440819C0100907E
:100A8000BE0402C0220F331F0A94E2F7242B2083F6
:100A9000E091B604F091B70420810090BF0402C039
:100AA000880F991F0A94E2F7809582238083C3E719
:100AB00080EA94E00E940C01C093100283E70E9438
:100AC000B4008DE00E94B4008AE00E94B4000E944D
:100AD0005801EECFF8940C947505EE0FFF1F881F98
:0E0AE0008BBF0790F691E02D1994F894FFCF8C
:100AEE0000000000BF00830148010C012C01010130
:00000001FF
